{
  "_format": "hh-sol-artifact-1",
  "contractName": "DappcampWarriors",
  "sourceName": "contracts/DappcampWarriors.sol",
  "abi": [
    {
      "inputs": [],
      "stateMutability": "nonpayable",
      "type": "constructor"
    },
    {
      "anonymous": false,
      "inputs": [
        {
          "indexed": true,
          "internalType": "address",
          "name": "owner",
          "type": "address"
        },
        {
          "indexed": true,
          "internalType": "address",
          "name": "approved",
          "type": "address"
        },
        {
          "indexed": true,
          "internalType": "uint256",
          "name": "tokenId",
          "type": "uint256"
        }
      ],
      "name": "Approval",
      "type": "event"
    },
    {
      "anonymous": false,
      "inputs": [
        {
          "indexed": true,
          "internalType": "address",
          "name": "owner",
          "type": "address"
        },
        {
          "indexed": true,
          "internalType": "address",
          "name": "operator",
          "type": "address"
        },
        {
          "indexed": false,
          "internalType": "bool",
          "name": "approved",
          "type": "bool"
        }
      ],
      "name": "ApprovalForAll",
      "type": "event"
    },
    {
      "anonymous": false,
      "inputs": [
        {
          "indexed": true,
          "internalType": "address",
          "name": "previousOwner",
          "type": "address"
        },
        {
          "indexed": true,
          "internalType": "address",
          "name": "newOwner",
          "type": "address"
        }
      ],
      "name": "OwnershipTransferred",
      "type": "event"
    },
    {
      "anonymous": false,
      "inputs": [
        {
          "indexed": true,
          "internalType": "address",
          "name": "from",
          "type": "address"
        },
        {
          "indexed": true,
          "internalType": "address",
          "name": "to",
          "type": "address"
        },
        {
          "indexed": true,
          "internalType": "uint256",
          "name": "tokenId",
          "type": "uint256"
        }
      ],
      "name": "Transfer",
      "type": "event"
    },
    {
      "inputs": [],
      "name": "_tokenIds",
      "outputs": [
        {
          "internalType": "uint256",
          "name": "_value",
          "type": "uint256"
        }
      ],
      "stateMutability": "view",
      "type": "function"
    },
    {
      "inputs": [
        {
          "internalType": "address",
          "name": "to",
          "type": "address"
        },
        {
          "internalType": "uint256",
          "name": "tokenId",
          "type": "uint256"
        }
      ],
      "name": "approve",
      "outputs": [],
      "stateMutability": "nonpayable",
      "type": "function"
    },
    {
      "inputs": [
        {
          "internalType": "address",
          "name": "owner",
          "type": "address"
        }
      ],
      "name": "balanceOf",
      "outputs": [
        {
          "internalType": "uint256",
          "name": "",
          "type": "uint256"
        }
      ],
      "stateMutability": "view",
      "type": "function"
    },
    {
      "inputs": [],
      "name": "baseURI",
      "outputs": [
        {
          "internalType": "string",
          "name": "",
          "type": "string"
        }
      ],
      "stateMutability": "view",
      "type": "function"
    },
    {
      "inputs": [
        {
          "internalType": "uint256",
          "name": "tokenId",
          "type": "uint256"
        }
      ],
      "name": "getApproved",
      "outputs": [
        {
          "internalType": "address",
          "name": "",
          "type": "address"
        }
      ],
      "stateMutability": "view",
      "type": "function"
    },
    {
      "inputs": [
        {
          "internalType": "address",
          "name": "owner",
          "type": "address"
        },
        {
          "internalType": "address",
          "name": "operator",
          "type": "address"
        }
      ],
      "name": "isApprovedForAll",
      "outputs": [
        {
          "internalType": "bool",
          "name": "",
          "type": "bool"
        }
      ],
      "stateMutability": "view",
      "type": "function"
    },
    {
      "inputs": [
        {
          "internalType": "address",
          "name": "to",
          "type": "address"
        }
      ],
      "name": "mint",
      "outputs": [
        {
          "internalType": "uint256",
          "name": "",
          "type": "uint256"
        }
      ],
      "stateMutability": "nonpayable",
      "type": "function"
    },
    {
      "inputs": [],
      "name": "name",
      "outputs": [
        {
          "internalType": "string",
          "name": "",
          "type": "string"
        }
      ],
      "stateMutability": "view",
      "type": "function"
    },
    {
      "inputs": [],
      "name": "owner",
      "outputs": [
        {
          "internalType": "address",
          "name": "",
          "type": "address"
        }
      ],
      "stateMutability": "view",
      "type": "function"
    },
    {
      "inputs": [
        {
          "internalType": "uint256",
          "name": "tokenId",
          "type": "uint256"
        }
      ],
      "name": "ownerOf",
      "outputs": [
        {
          "internalType": "address",
          "name": "",
          "type": "address"
        }
      ],
      "stateMutability": "view",
      "type": "function"
    },
    {
      "inputs": [],
      "name": "renounceOwnership",
      "outputs": [],
      "stateMutability": "nonpayable",
      "type": "function"
    },
    {
      "inputs": [
        {
          "internalType": "address",
          "name": "from",
          "type": "address"
        },
        {
          "internalType": "address",
          "name": "to",
          "type": "address"
        },
        {
          "internalType": "uint256",
          "name": "tokenId",
          "type": "uint256"
        }
      ],
      "name": "safeTransferFrom",
      "outputs": [],
      "stateMutability": "nonpayable",
      "type": "function"
    },
    {
      "inputs": [
        {
          "internalType": "address",
          "name": "from",
          "type": "address"
        },
        {
          "internalType": "address",
          "name": "to",
          "type": "address"
        },
        {
          "internalType": "uint256",
          "name": "tokenId",
          "type": "uint256"
        },
        {
          "internalType": "bytes",
          "name": "_data",
          "type": "bytes"
        }
      ],
      "name": "safeTransferFrom",
      "outputs": [],
      "stateMutability": "nonpayable",
      "type": "function"
    },
    {
      "inputs": [
        {
          "internalType": "address",
          "name": "operator",
          "type": "address"
        },
        {
          "internalType": "bool",
          "name": "approved",
          "type": "bool"
        }
      ],
      "name": "setApprovalForAll",
      "outputs": [],
      "stateMutability": "nonpayable",
      "type": "function"
    },
    {
      "inputs": [
        {
          "internalType": "string",
          "name": "_baseURIParam",
          "type": "string"
        }
      ],
      "name": "setBaseURI",
      "outputs": [],
      "stateMutability": "nonpayable",
      "type": "function"
    },
    {
      "inputs": [
        {
          "internalType": "bytes4",
          "name": "interfaceId",
          "type": "bytes4"
        }
      ],
      "name": "supportsInterface",
      "outputs": [
        {
          "internalType": "bool",
          "name": "",
          "type": "bool"
        }
      ],
      "stateMutability": "view",
      "type": "function"
    },
    {
      "inputs": [],
      "name": "symbol",
      "outputs": [
        {
          "internalType": "string",
          "name": "",
          "type": "string"
        }
      ],
      "stateMutability": "view",
      "type": "function"
    },
    {
      "inputs": [
        {
          "internalType": "uint256",
          "name": "tokenId",
          "type": "uint256"
        }
      ],
      "name": "tokenURI",
      "outputs": [
        {
          "internalType": "string",
          "name": "",
          "type": "string"
        }
      ],
      "stateMutability": "view",
      "type": "function"
    },
    {
      "inputs": [
        {
          "internalType": "address",
          "name": "from",
          "type": "address"
        },
        {
          "internalType": "address",
          "name": "to",
          "type": "address"
        },
        {
          "internalType": "uint256",
          "name": "tokenId",
          "type": "uint256"
        }
      ],
      "name": "transferFrom",
      "outputs": [],
      "stateMutability": "nonpayable",
      "type": "function"
    },
    {
      "inputs": [
        {
          "internalType": "address",
          "name": "newOwner",
          "type": "address"
        }
      ],
      "name": "transferOwnership",
      "outputs": [],
      "stateMutability": "nonpayable",
      "type": "function"
    }
  ],
  "bytecode": "0x60806040523480156200001157600080fd5b506040518060400160405280601081526020017f4461707063616d7057617272696f7273000000000000000000000000000000008152506040518060400160405280600481526020017f4457415200000000000000000000000000000000000000000000000000000000815250816000908051906020019062000096929190620007c0565b508060019080519060200190620000af929190620007c0565b505050620000d2620000c66200010e60201b60201c565b6200011660201b60201c565b60005b600a8110156200010757620000f033620001dc60201b60201c565b508080620000fe9062000c80565b915050620000d5565b5062000d57565b600033905090565b6000600660009054906101000a900473ffffffffffffffffffffffffffffffffffffffff16905081600660006101000a81548173ffffffffffffffffffffffffffffffffffffffff021916908373ffffffffffffffffffffffffffffffffffffffff1602179055508173ffffffffffffffffffffffffffffffffffffffff168173ffffffffffffffffffffffffffffffffffffffff167f8be0079c531659141344cd1fd0a4f28419497f9722a3daafe3b4186f6b6457e060405160405180910390a35050565b6000620001ee6200010e60201b60201c565b73ffffffffffffffffffffffffffffffffffffffff1662000214620002ba60201b60201c565b73ffffffffffffffffffffffffffffffffffffffff16146200026d576040517f08c379a0000000000000000000000000000000000000000000000000000000008152600401620002649062000afe565b60405180910390fd5b6000620002866007620002e460201b62000ea81760201c565b90506200029a8382620002f260201b60201c565b620002b160076200031860201b62000eb61760201c565b80915050919050565b6000600660009054906101000a900473ffffffffffffffffffffffffffffffffffffffff16905090565b600081600001549050919050565b620003148282604051806020016040528060008152506200032e60201b60201c565b5050565b6001816000016000828254019250508190555050565b6200034083836200039c60201b60201c565b6200035560008484846200058260201b60201c565b62000397576040517f08c379a00000000000000000000000000000000000000000000000000000000081526004016200038e9062000a98565b60405180910390fd5b505050565b600073ffffffffffffffffffffffffffffffffffffffff168273ffffffffffffffffffffffffffffffffffffffff1614156200040f576040517f08c379a0000000000000000000000000000000000000000000000000000000008152600401620004069062000adc565b60405180910390fd5b62000420816200073c60201b60201c565b1562000463576040517f08c379a00000000000000000000000000000000000000000000000000000000081526004016200045a9062000aba565b60405180910390fd5b6200047760008383620007a860201b60201c565b6001600360008473ffffffffffffffffffffffffffffffffffffffff1673ffffffffffffffffffffffffffffffffffffffff1681526020019081526020016000206000828254620004c9919062000b4d565b92505081905550816002600083815260200190815260200160002060006101000a81548173ffffffffffffffffffffffffffffffffffffffff021916908373ffffffffffffffffffffffffffffffffffffffff160217905550808273ffffffffffffffffffffffffffffffffffffffff16600073ffffffffffffffffffffffffffffffffffffffff167fddf252ad1be2c89b69c2b068fc378daa952ba7f163c4a11628f55a4df523b3ef60405160405180910390a45050565b6000620005b08473ffffffffffffffffffffffffffffffffffffffff16620007ad60201b62000ecc1760201c565b156200072f578373ffffffffffffffffffffffffffffffffffffffff1663150b7a02620005e26200010e60201b60201c565b8786866040518563ffffffff1660e01b815260040162000606949392919062000a44565b602060405180830381600087803b1580156200062157600080fd5b505af19250505080156200065557506040513d601f19601f8201168201806040525081019062000652919062000887565b60015b620006de573d806000811462000688576040519150601f19603f3d011682016040523d82523d6000602084013e6200068d565b606091505b50600081511415620006d6576040517f08c379a0000000000000000000000000000000000000000000000000000000008152600401620006cd9062000a98565b60405180910390fd5b805181602001fd5b63150b7a0260e01b7bffffffffffffffffffffffffffffffffffffffffffffffffffffffff1916817bffffffffffffffffffffffffffffffffffffffffffffffffffffffff19161491505062000734565b600190505b949350505050565b60008073ffffffffffffffffffffffffffffffffffffffff166002600084815260200190815260200160002060009054906101000a900473ffffffffffffffffffffffffffffffffffffffff1673ffffffffffffffffffffffffffffffffffffffff1614159050919050565b505050565b600080823b905060008111915050919050565b828054620007ce9062000c4a565b90600052602060002090601f016020900481019282620007f257600085556200083e565b82601f106200080d57805160ff19168380011785556200083e565b828001600101855582156200083e579182015b828111156200083d57825182559160200191906001019062000820565b5b5090506200084d919062000851565b5090565b5b808211156200086c57600081600090555060010162000852565b5090565b600081519050620008818162000d3d565b92915050565b6000602082840312156200089a57600080fd5b6000620008aa8482850162000870565b91505092915050565b620008be8162000baa565b82525050565b6000620008d18262000b20565b620008dd818562000b2b565b9350620008ef81856020860162000c14565b620008fa8162000d2c565b840191505092915050565b60006200091460328362000b3c565b91507f4552433732313a207472616e7366657220746f206e6f6e20455243373231526560008301527f63656976657220696d706c656d656e74657200000000000000000000000000006020830152604082019050919050565b60006200097c601c8362000b3c565b91507f4552433732313a20746f6b656e20616c7265616479206d696e746564000000006000830152602082019050919050565b6000620009be60208362000b3c565b91507f4552433732313a206d696e7420746f20746865207a65726f20616464726573736000830152602082019050919050565b600062000a0060208362000b3c565b91507f4f776e61626c653a2063616c6c6572206973206e6f7420746865206f776e65726000830152602082019050919050565b62000a3e8162000c0a565b82525050565b600060808201905062000a5b6000830187620008b3565b62000a6a6020830186620008b3565b62000a79604083018562000a33565b818103606083015262000a8d8184620008c4565b905095945050505050565b6000602082019050818103600083015262000ab38162000905565b9050919050565b6000602082019050818103600083015262000ad5816200096d565b9050919050565b6000602082019050818103600083015262000af781620009af565b9050919050565b6000602082019050818103600083015262000b1981620009f1565b9050919050565b600081519050919050565b600082825260208201905092915050565b600082825260208201905092915050565b600062000b5a8262000c0a565b915062000b678362000c0a565b9250827fffffffffffffffffffffffffffffffffffffffffffffffffffffffffffffffff0382111562000b9f5762000b9e62000cce565b5b828201905092915050565b600062000bb78262000bea565b9050919050565b60007fffffffff0000000000000000000000000000000000000000000000000000000082169050919050565b600073ffffffffffffffffffffffffffffffffffffffff82169050919050565b6000819050919050565b60005b8381101562000c3457808201518184015260208101905062000c17565b8381111562000c44576000848401525b50505050565b6000600282049050600182168062000c6357607f821691505b6020821081141562000c7a5762000c7962000cfd565b5b50919050565b600062000c8d8262000c0a565b91507fffffffffffffffffffffffffffffffffffffffffffffffffffffffffffffffff82141562000cc35762000cc262000cce565b5b600182019050919050565b7f4e487b7100000000000000000000000000000000000000000000000000000000600052601160045260246000fd5b7f4e487b7100000000000000000000000000000000000000000000000000000000600052602260045260246000fd5b6000601f19601f8301169050919050565b62000d488162000bbe565b811462000d5457600080fd5b50565b612e6b8062000d676000396000f3fe608060405234801561001057600080fd5b506004361061012c5760003560e01c806370a08231116100ad578063aa46a40011610071578063aa46a4001461032f578063b88d4fde1461034d578063c87b56dd14610369578063e985e9c514610399578063f2fde38b146103c95761012c565b806370a082311461029d578063715018a6146102cd5780638da5cb5b146102d757806395d89b41146102f5578063a22cb465146103135761012c565b806342842e0e116100f457806342842e0e146101e757806355f804b3146102035780636352211e1461021f5780636a6278421461024f5780636c0360eb1461027f5761012c565b806301ffc9a71461013157806306fdde0314610161578063081812fc1461017f578063095ea7b3146101af57806323b872dd146101cb575b600080fd5b61014b60048036038101906101469190611fe4565b6103e5565b60405161015891906127c3565b60405180910390f35b6101696104c7565b60405161017691906127de565b60405180910390f35b61019960048036038101906101949190612077565b610559565b6040516101a6919061275c565b60405180910390f35b6101c960048036038101906101c49190611fa8565b6105de565b005b6101e560048036038101906101e09190611ea2565b6106f6565b005b61020160048036038101906101fc9190611ea2565b610756565b005b61021d60048036038101906102189190612036565b610776565b005b61023960048036038101906102349190612077565b61080c565b604051610246919061275c565b60405180910390f35b61026960048036038101906102649190611e3d565b6108be565b6040516102769190612a00565b60405180910390f35b610287610967565b60405161029491906127de565b60405180910390f35b6102b760048036038101906102b29190611e3d565b6109f5565b6040516102c49190612a00565b60405180910390f35b6102d5610aad565b005b6102df610b35565b6040516102ec919061275c565b60405180910390f35b6102fd610b5f565b60405161030a91906127de565b60405180910390f35b61032d60048036038101906103289190611f6c565b610bf1565b005b610337610c07565b6040516103449190612a00565b60405180910390f35b61036760048036038101906103629190611ef1565b610c13565b005b610383600480360381019061037e9190612077565b610c75565b60405161039091906127de565b60405180910390f35b6103b360048036038101906103ae9190611e66565b610d1c565b6040516103c091906127c3565b60405180910390f35b6103e360048036038101906103de9190611e3d565b610db0565b005b60007f80ac58cd000000000000000000000000000000000000000000000000000000007bffffffffffffffffffffffffffffffffffffffffffffffffffffffff1916827bffffffffffffffffffffffffffffffffffffffffffffffffffffffff191614806104b057507f5b5e139f000000000000000000000000000000000000000000000000000000007bffffffffffffffffffffffffffffffffffffffffffffffffffffffff1916827bffffffffffffffffffffffffffffffffffffffffffffffffffffffff1916145b806104c057506104bf82610edf565b5b9050919050565b6060600080546104d690612c60565b80601f016020809104026020016040519081016040528092919081815260200182805461050290612c60565b801561054f5780601f106105245761010080835404028352916020019161054f565b820191906000526020600020905b81548152906001019060200180831161053257829003601f168201915b5050505050905090565b600061056482610f49565b6105a3576040517f08c379a000000000000000000000000000000000000000000000000000000000815260040161059a90612940565b60405180910390fd5b6004600083815260200190815260200160002060009054906101000a900473ffffffffffffffffffffffffffffffffffffffff169050919050565b60006105e98261080c565b90508073ffffffffffffffffffffffffffffffffffffffff168373ffffffffffffffffffffffffffffffffffffffff16141561065a576040517f08c379a0000000000000000000000000000000000000000000000000000000008152600401610651906129c0565b60405180910390fd5b8073ffffffffffffffffffffffffffffffffffffffff16610679610fb5565b73ffffffffffffffffffffffffffffffffffffffff1614806106a857506106a7816106a2610fb5565b610d1c565b5b6106e7576040517f08c379a00000000000000000000000000000000000000000000000000000000081526004016106de906128c0565b60405180910390fd5b6106f18383610fbd565b505050565b610707610701610fb5565b82611076565b610746576040517f08c379a000000000000000000000000000000000000000000000000000000000815260040161073d906129e0565b60405180910390fd5b610751838383611154565b505050565b61077183838360405180602001604052806000815250610c13565b505050565b61077e610fb5565b73ffffffffffffffffffffffffffffffffffffffff1661079c610b35565b73ffffffffffffffffffffffffffffffffffffffff16146107f2576040517f08c379a00000000000000000000000000000000000000000000000000000000081526004016107e990612960565b60405180910390fd5b8060089080519060200190610808929190611c61565b5050565b6000806002600084815260200190815260200160002060009054906101000a900473ffffffffffffffffffffffffffffffffffffffff169050600073ffffffffffffffffffffffffffffffffffffffff168173ffffffffffffffffffffffffffffffffffffffff1614156108b5576040517f08c379a00000000000000000000000000000000000000000000000000000000081526004016108ac90612900565b60405180910390fd5b80915050919050565b60006108c8610fb5565b73ffffffffffffffffffffffffffffffffffffffff166108e6610b35565b73ffffffffffffffffffffffffffffffffffffffff161461093c576040517f08c379a000000000000000000000000000000000000000000000000000000000815260040161093390612960565b60405180910390fd5b60006109486007610ea8565b905061095483826113b0565b61095e6007610eb6565b80915050919050565b6008805461097490612c60565b80601f01602080910402602001604051908101604052809291908181526020018280546109a090612c60565b80156109ed5780601f106109c2576101008083540402835291602001916109ed565b820191906000526020600020905b8154815290600101906020018083116109d057829003601f168201915b505050505081565b60008073ffffffffffffffffffffffffffffffffffffffff168273ffffffffffffffffffffffffffffffffffffffff161415610a66576040517f08c379a0000000000000000000000000000000000000000000000000000000008152600401610a5d906128e0565b60405180910390fd5b600360008373ffffffffffffffffffffffffffffffffffffffff1673ffffffffffffffffffffffffffffffffffffffff168152602001908152602001600020549050919050565b610ab5610fb5565b73ffffffffffffffffffffffffffffffffffffffff16610ad3610b35565b73ffffffffffffffffffffffffffffffffffffffff1614610b29576040517f08c379a0000000000000000000000000000000000000000000000000000000008152600401610b2090612960565b60405180910390fd5b610b3360006113ce565b565b6000600660009054906101000a900473ffffffffffffffffffffffffffffffffffffffff16905090565b606060018054610b6e90612c60565b80601f0160208091040260200160405190810160405280929190818152602001828054610b9a90612c60565b8015610be75780601f10610bbc57610100808354040283529160200191610be7565b820191906000526020600020905b815481529060010190602001808311610bca57829003601f168201915b5050505050905090565b610c03610bfc610fb5565b8383611494565b5050565b60078060000154905081565b610c24610c1e610fb5565b83611076565b610c63576040517f08c379a0000000000000000000000000000000000000000000000000000000008152600401610c5a906129e0565b60405180910390fd5b610c6f84848484611601565b50505050565b6060610c8082610f49565b610cbf576040517f08c379a0000000000000000000000000000000000000000000000000000000008152600401610cb6906129a0565b60405180910390fd5b6000610cc961165d565b90506000815111610ce95760405180602001604052806000815250610d14565b80610cf3846116ef565b604051602001610d04929190612738565b6040516020818303038152906040525b915050919050565b6000600560008473ffffffffffffffffffffffffffffffffffffffff1673ffffffffffffffffffffffffffffffffffffffff16815260200190815260200160002060008373ffffffffffffffffffffffffffffffffffffffff1673ffffffffffffffffffffffffffffffffffffffff16815260200190815260200160002060009054906101000a900460ff16905092915050565b610db8610fb5565b73ffffffffffffffffffffffffffffffffffffffff16610dd6610b35565b73ffffffffffffffffffffffffffffffffffffffff1614610e2c576040517f08c379a0000000000000000000000000000000000000000000000000000000008152600401610e2390612960565b60405180910390fd5b600073ffffffffffffffffffffffffffffffffffffffff168173ffffffffffffffffffffffffffffffffffffffff161415610e9c576040517f08c379a0000000000000000000000000000000000000000000000000000000008152600401610e9390612820565b60405180910390fd5b610ea5816113ce565b50565b600081600001549050919050565b6001816000016000828254019250508190555050565b600080823b905060008111915050919050565b60007f01ffc9a7000000000000000000000000000000000000000000000000000000007bffffffffffffffffffffffffffffffffffffffffffffffffffffffff1916827bffffffffffffffffffffffffffffffffffffffffffffffffffffffff1916149050919050565b60008073ffffffffffffffffffffffffffffffffffffffff166002600084815260200190815260200160002060009054906101000a900473ffffffffffffffffffffffffffffffffffffffff1673ffffffffffffffffffffffffffffffffffffffff1614159050919050565b600033905090565b816004600083815260200190815260200160002060006101000a81548173ffffffffffffffffffffffffffffffffffffffff021916908373ffffffffffffffffffffffffffffffffffffffff160217905550808273ffffffffffffffffffffffffffffffffffffffff166110308361080c565b73ffffffffffffffffffffffffffffffffffffffff167f8c5be1e5ebec7d5bd14f71427d1e84f3dd0314c0f7b2291e5b200ac8c7c3b92560405160405180910390a45050565b600061108182610f49565b6110c0576040517f08c379a00000000000000000000000000000000000000000000000000000000081526004016110b7906128a0565b60405180910390fd5b60006110cb8361080c565b90508073ffffffffffffffffffffffffffffffffffffffff168473ffffffffffffffffffffffffffffffffffffffff16148061113a57508373ffffffffffffffffffffffffffffffffffffffff1661112284610559565b73ffffffffffffffffffffffffffffffffffffffff16145b8061114b575061114a8185610d1c565b5b91505092915050565b8273ffffffffffffffffffffffffffffffffffffffff166111748261080c565b73ffffffffffffffffffffffffffffffffffffffff16146111ca576040517f08c379a00000000000000000000000000000000000000000000000000000000081526004016111c190612980565b60405180910390fd5b600073ffffffffffffffffffffffffffffffffffffffff168273ffffffffffffffffffffffffffffffffffffffff16141561123a576040517f08c379a000000000000000000000000000000000000000000000000000000000815260040161123190612860565b60405180910390fd5b61124583838361189c565b611250600082610fbd565b6001600360008573ffffffffffffffffffffffffffffffffffffffff1673ffffffffffffffffffffffffffffffffffffffff16815260200190815260200160002060008282546112a09190612b76565b925050819055506001600360008473ffffffffffffffffffffffffffffffffffffffff1673ffffffffffffffffffffffffffffffffffffffff16815260200190815260200160002060008282546112f79190612aef565b92505081905550816002600083815260200190815260200160002060006101000a81548173ffffffffffffffffffffffffffffffffffffffff021916908373ffffffffffffffffffffffffffffffffffffffff160217905550808273ffffffffffffffffffffffffffffffffffffffff168473ffffffffffffffffffffffffffffffffffffffff167fddf252ad1be2c89b69c2b068fc378daa952ba7f163c4a11628f55a4df523b3ef60405160405180910390a4505050565b6113ca8282604051806020016040528060008152506118a1565b5050565b6000600660009054906101000a900473ffffffffffffffffffffffffffffffffffffffff16905081600660006101000a81548173ffffffffffffffffffffffffffffffffffffffff021916908373ffffffffffffffffffffffffffffffffffffffff1602179055508173ffffffffffffffffffffffffffffffffffffffff168173ffffffffffffffffffffffffffffffffffffffff167f8be0079c531659141344cd1fd0a4f28419497f9722a3daafe3b4186f6b6457e060405160405180910390a35050565b8173ffffffffffffffffffffffffffffffffffffffff168373ffffffffffffffffffffffffffffffffffffffff161415611503576040517f08c379a00000000000000000000000000000000000000000000000000000000081526004016114fa90612880565b60405180910390fd5b80600560008573ffffffffffffffffffffffffffffffffffffffff1673ffffffffffffffffffffffffffffffffffffffff16815260200190815260200160002060008473ffffffffffffffffffffffffffffffffffffffff1673ffffffffffffffffffffffffffffffffffffffff16815260200190815260200160002060006101000a81548160ff0219169083151502179055508173ffffffffffffffffffffffffffffffffffffffff168373ffffffffffffffffffffffffffffffffffffffff167f17307eab39ab6107e8899845ad3d59bd9653f200f220920489ca2b5937696c31836040516115f491906127c3565b60405180910390a3505050565b61160c848484611154565b611618848484846118fc565b611657576040517f08c379a000000000000000000000000000000000000000000000000000000000815260040161164e90612800565b60405180910390fd5b50505050565b60606008805461166c90612c60565b80601f016020809104026020016040519081016040528092919081815260200182805461169890612c60565b80156116e55780601f106116ba576101008083540402835291602001916116e5565b820191906000526020600020905b8154815290600101906020018083116116c857829003601f168201915b5050505050905090565b60606000821415611737576040518060400160405280600181526020017f30000000000000000000000000000000000000000000000000000000000000008152509050611897565b600082905060005b6000821461176957808061175290612c92565b915050600a826117629190612b45565b915061173f565b60008167ffffffffffffffff8111156117ab577f4e487b7100000000000000000000000000000000000000000000000000000000600052604160045260246000fd5b6040519080825280601f01601f1916602001820160405280156117dd5781602001600182028036833780820191505090505b5090505b60008514611890576001826117f69190612b76565b9150600a856118059190612cdb565b60306118119190612aef565b60f81b81838151811061184d577f4e487b7100000000000000000000000000000000000000000000000000000000600052603260045260246000fd5b60200101907effffffffffffffffffffffffffffffffffffffffffffffffffffffffffffff1916908160001a905350600a856118899190612b45565b94506117e1565b8093505050505b919050565b505050565b6118ab8383611a93565b6118b860008484846118fc565b6118f7576040517f08c379a00000000000000000000000000000000000000000000000000000000081526004016118ee90612800565b60405180910390fd5b505050565b600061191d8473ffffffffffffffffffffffffffffffffffffffff16610ecc565b15611a86578373ffffffffffffffffffffffffffffffffffffffff1663150b7a02611946610fb5565b8786866040518563ffffffff1660e01b81526004016119689493929190612777565b602060405180830381600087803b15801561198257600080fd5b505af19250505080156119b357506040513d601f19601f820116820180604052508101906119b0919061200d565b60015b611a36573d80600081146119e3576040519150601f19603f3d011682016040523d82523d6000602084013e6119e8565b606091505b50600081511415611a2e576040517f08c379a0000000000000000000000000000000000000000000000000000000008152600401611a2590612800565b60405180910390fd5b805181602001fd5b63150b7a0260e01b7bffffffffffffffffffffffffffffffffffffffffffffffffffffffff1916817bffffffffffffffffffffffffffffffffffffffffffffffffffffffff191614915050611a8b565b600190505b949350505050565b600073ffffffffffffffffffffffffffffffffffffffff168273ffffffffffffffffffffffffffffffffffffffff161415611b03576040517f08c379a0000000000000000000000000000000000000000000000000000000008152600401611afa90612920565b60405180910390fd5b611b0c81610f49565b15611b4c576040517f08c379a0000000000000000000000000000000000000000000000000000000008152600401611b4390612840565b60405180910390fd5b611b586000838361189c565b6001600360008473ffffffffffffffffffffffffffffffffffffffff1673ffffffffffffffffffffffffffffffffffffffff1681526020019081526020016000206000828254611ba89190612aef565b92505081905550816002600083815260200190815260200160002060006101000a81548173ffffffffffffffffffffffffffffffffffffffff021916908373ffffffffffffffffffffffffffffffffffffffff160217905550808273ffffffffffffffffffffffffffffffffffffffff16600073ffffffffffffffffffffffffffffffffffffffff167fddf252ad1be2c89b69c2b068fc378daa952ba7f163c4a11628f55a4df523b3ef60405160405180910390a45050565b828054611c6d90612c60565b90600052602060002090601f016020900481019282611c8f5760008555611cd6565b82601f10611ca857805160ff1916838001178555611cd6565b82800160010185558215611cd6579182015b82811115611cd5578251825591602001919060010190611cba565b5b509050611ce39190611ce7565b5090565b5b80821115611d00576000816000905550600101611ce8565b5090565b6000611d17611d1284612a4c565b612a1b565b905082815260208101848484011115611d2f57600080fd5b611d3a848285612c1e565b509392505050565b6000611d55611d5084612a7c565b612a1b565b905082815260208101848484011115611d6d57600080fd5b611d78848285612c1e565b509392505050565b600081359050611d8f81612dd9565b92915050565b600081359050611da481612df0565b92915050565b600081359050611db981612e07565b92915050565b600081519050611dce81612e07565b92915050565b600082601f830112611de557600080fd5b8135611df5848260208601611d04565b91505092915050565b600082601f830112611e0f57600080fd5b8135611e1f848260208601611d42565b91505092915050565b600081359050611e3781612e1e565b92915050565b600060208284031215611e4f57600080fd5b6000611e5d84828501611d80565b91505092915050565b60008060408385031215611e7957600080fd5b6000611e8785828601611d80565b9250506020611e9885828601611d80565b9150509250929050565b600080600060608486031215611eb757600080fd5b6000611ec586828701611d80565b9350506020611ed686828701611d80565b9250506040611ee786828701611e28565b9150509250925092565b60008060008060808587031215611f0757600080fd5b6000611f1587828801611d80565b9450506020611f2687828801611d80565b9350506040611f3787828801611e28565b925050606085013567ffffffffffffffff811115611f5457600080fd5b611f6087828801611dd4565b91505092959194509250565b60008060408385031215611f7f57600080fd5b6000611f8d85828601611d80565b9250506020611f9e85828601611d95565b9150509250929050565b60008060408385031215611fbb57600080fd5b6000611fc985828601611d80565b9250506020611fda85828601611e28565b9150509250929050565b600060208284031215611ff657600080fd5b600061200484828501611daa565b91505092915050565b60006020828403121561201f57600080fd5b600061202d84828501611dbf565b91505092915050565b60006020828403121561204857600080fd5b600082013567ffffffffffffffff81111561206257600080fd5b61206e84828501611dfe565b91505092915050565b60006020828403121561208957600080fd5b600061209784828501611e28565b91505092915050565b6120a981612baa565b82525050565b6120b881612bbc565b82525050565b60006120c982612aac565b6120d38185612ac2565b93506120e3818560208601612c2d565b6120ec81612dc8565b840191505092915050565b600061210282612ab7565b61210c8185612ad3565b935061211c818560208601612c2d565b61212581612dc8565b840191505092915050565b600061213b82612ab7565b6121458185612ae4565b9350612155818560208601612c2d565b80840191505092915050565b600061216e603283612ad3565b91507f4552433732313a207472616e7366657220746f206e6f6e20455243373231526560008301527f63656976657220696d706c656d656e74657200000000000000000000000000006020830152604082019050919050565b60006121d4602683612ad3565b91507f4f776e61626c653a206e6577206f776e657220697320746865207a65726f206160008301527f64647265737300000000000000000000000000000000000000000000000000006020830152604082019050919050565b600061223a601c83612ad3565b91507f4552433732313a20746f6b656e20616c7265616479206d696e746564000000006000830152602082019050919050565b600061227a602483612ad3565b91507f4552433732313a207472616e7366657220746f20746865207a65726f2061646460008301527f72657373000000000000000000000000000000000000000000000000000000006020830152604082019050919050565b60006122e0601983612ad3565b91507f4552433732313a20617070726f766520746f2063616c6c6572000000000000006000830152602082019050919050565b6000612320602c83612ad3565b91507f4552433732313a206f70657261746f7220717565727920666f72206e6f6e657860008301527f697374656e7420746f6b656e00000000000000000000000000000000000000006020830152604082019050919050565b6000612386603883612ad3565b91507f4552433732313a20617070726f76652063616c6c6572206973206e6f74206f7760008301527f6e6572206e6f7220617070726f76656420666f7220616c6c00000000000000006020830152604082019050919050565b60006123ec602a83612ad3565b91507f4552433732313a2062616c616e636520717565727920666f7220746865207a6560008301527f726f2061646472657373000000000000000000000000000000000000000000006020830152604082019050919050565b6000612452602983612ad3565b91507f4552433732313a206f776e657220717565727920666f72206e6f6e657869737460008301527f656e7420746f6b656e00000000000000000000000000000000000000000000006020830152604082019050919050565b60006124b8602083612ad3565b91507f4552433732313a206d696e7420746f20746865207a65726f20616464726573736000830152602082019050919050565b60006124f8602c83612ad3565b91507f4552433732313a20617070726f76656420717565727920666f72206e6f6e657860008301527f697374656e7420746f6b656e00000000000000000000000000000000000000006020830152604082019050919050565b600061255e602083612ad3565b91507f4f776e61626c653a2063616c6c6572206973206e6f7420746865206f776e65726000830152602082019050919050565b600061259e602983612ad3565b91507f4552433732313a207472616e73666572206f6620746f6b656e2074686174206960008301527f73206e6f74206f776e00000000000000000000000000000000000000000000006020830152604082019050919050565b6000612604602f83612ad3565b91507f4552433732314d657461646174613a2055524920717565727920666f72206e6f60008301527f6e6578697374656e7420746f6b656e00000000000000000000000000000000006020830152604082019050919050565b600061266a602183612ad3565b91507f4552433732313a20617070726f76616c20746f2063757272656e74206f776e6560008301527f72000000000000000000000000000000000000000000000000000000000000006020830152604082019050919050565b60006126d0603183612ad3565b91507f4552433732313a207472616e736665722063616c6c6572206973206e6f74206f60008301527f776e6572206e6f7220617070726f7665640000000000000000000000000000006020830152604082019050919050565b61273281612c14565b82525050565b60006127448285612130565b91506127508284612130565b91508190509392505050565b600060208201905061277160008301846120a0565b92915050565b600060808201905061278c60008301876120a0565b61279960208301866120a0565b6127a66040830185612729565b81810360608301526127b881846120be565b905095945050505050565b60006020820190506127d860008301846120af565b92915050565b600060208201905081810360008301526127f881846120f7565b905092915050565b6000602082019050818103600083015261281981612161565b9050919050565b60006020820190508181036000830152612839816121c7565b9050919050565b600060208201905081810360008301526128598161222d565b9050919050565b600060208201905081810360008301526128798161226d565b9050919050565b60006020820190508181036000830152612899816122d3565b9050919050565b600060208201905081810360008301526128b981612313565b9050919050565b600060208201905081810360008301526128d981612379565b9050919050565b600060208201905081810360008301526128f9816123df565b9050919050565b6000602082019050818103600083015261291981612445565b9050919050565b60006020820190508181036000830152612939816124ab565b9050919050565b60006020820190508181036000830152612959816124eb565b9050919050565b6000602082019050818103600083015261297981612551565b9050919050565b6000602082019050818103600083015261299981612591565b9050919050565b600060208201905081810360008301526129b9816125f7565b9050919050565b600060208201905081810360008301526129d98161265d565b9050919050565b600060208201905081810360008301526129f9816126c3565b9050919050565b6000602082019050612a156000830184612729565b92915050565b6000604051905081810181811067ffffffffffffffff82111715612a4257612a41612d99565b5b8060405250919050565b600067ffffffffffffffff821115612a6757612a66612d99565b5b601f19601f8301169050602081019050919050565b600067ffffffffffffffff821115612a9757612a96612d99565b5b601f19601f8301169050602081019050919050565b600081519050919050565b600081519050919050565b600082825260208201905092915050565b600082825260208201905092915050565b600081905092915050565b6000612afa82612c14565b9150612b0583612c14565b9250827fffffffffffffffffffffffffffffffffffffffffffffffffffffffffffffffff03821115612b3a57612b39612d0c565b5b828201905092915050565b6000612b5082612c14565b9150612b5b83612c14565b925082612b6b57612b6a612d3b565b5b828204905092915050565b6000612b8182612c14565b9150612b8c83612c14565b925082821015612b9f57612b9e612d0c565b5b828203905092915050565b6000612bb582612bf4565b9050919050565b60008115159050919050565b60007fffffffff0000000000000000000000000000000000000000000000000000000082169050919050565b600073ffffffffffffffffffffffffffffffffffffffff82169050919050565b6000819050919050565b82818337600083830152505050565b60005b83811015612c4b578082015181840152602081019050612c30565b83811115612c5a576000848401525b50505050565b60006002820490506001821680612c7857607f821691505b60208210811415612c8c57612c8b612d6a565b5b50919050565b6000612c9d82612c14565b91507fffffffffffffffffffffffffffffffffffffffffffffffffffffffffffffffff821415612cd057612ccf612d0c565b5b600182019050919050565b6000612ce682612c14565b9150612cf183612c14565b925082612d0157612d00612d3b565b5b828206905092915050565b7f4e487b7100000000000000000000000000000000000000000000000000000000600052601160045260246000fd5b7f4e487b7100000000000000000000000000000000000000000000000000000000600052601260045260246000fd5b7f4e487b7100000000000000000000000000000000000000000000000000000000600052602260045260246000fd5b7f4e487b7100000000000000000000000000000000000000000000000000000000600052604160045260246000fd5b6000601f19601f8301169050919050565b612de281612baa565b8114612ded57600080fd5b50565b612df981612bbc565b8114612e0457600080fd5b50565b612e1081612bc8565b8114612e1b57600080fd5b50565b612e2781612c14565b8114612e3257600080fd5b5056fea2646970667358221220ee033482a3ece01a709a1e66a222c4eae1542799e26b2b04f2da1e22b33aebaf64736f6c63430008000033",
  "linkReferences": {},
  "deployedLinkReferences": {}
}